:020000040800F2
:10000000380500209D010008A51A00088118000885
:10001000A11A0008D50200083922000800000000DB
:10002000000000000000000000000000B31A0008FB
:10003000D902000800000000AF1A0008B51A000835
:10004000B7010008A71A0008B7010008B7010008A7
:10005000D1030008B11A0008B7010008B701000871
:10006000B7010008B7010008B7010008B701000890
:10007000B7010008B7010008B7010008B701000880
:10008000B7010008B7010008B7010008B701000870
:10009000B7010008B7010008B7010008DB0200083B
:1000A000B7010008691B0008B7010008B701000884
:1000B000B7010008B7010008B7010008B701000840
:1000C000B7010008B7010008B7010008B701000830
:1000D000B701000809220008192200082922000897
:1000E000B7010008B7010008B7010008B701000810
:1000F000B7010008B7010008B7010008B701000800
:10010000B7010008B7010008B7010008B7010008EF
:10011000B7010008B7010008B7010008B7010008DF
:10012000B7010008B7010008B7010008B7010008CF
:10013000B7010008B7010008B7010008B7010008BF
:10014000B7010008B7010008B7010008B7010008AF
:10015000B7010008B7010008B7010008B70100089F
:10016000B7010008B7010008B7010008B70100088F
:10017000B7010008B7010008B7010008000000003F
:10018000B701000871040008DFF80CD000F090F807
:100190000048004721240008380500200648804711
:1001A00006480047FEE7FEE7FEE7FEE7FEE7FEE75C
:1001B000FEE7FEE7FEE7FEE74D1B000889010008A9
:1001C0002DE9F05F0546002092469B46884606468C
:1001D000814640241BE0284641464746224600F01F
:1001E00057F853465A46C01A914110D31146184643
:1001F000224600F03EF82D1A67EB01084F462246D2
:100200000120002100F035F817EB00094E41201EB7
:10021000A4F10104DFDC484631462A464346BDE8E6
:10022000F09FD2B201E000F8012B491EFBD27047CB
:100230000022F6E710B513460A4604461946FFF7B2
:10024000F0FF204610BD30B50B46014600202022AD
:10025000012409E021FA02F59D4205D303FA02F5D3
:10026000491B04FA02F52844151EA2F10102F1DC33
:1002700030BD202A04DB203A00FA02F1002070474A
:100280009140C2F1200320FA03F3194390407047D4
:10029000202A04DB203A21FA02F00021704721FADB
:1002A00002F3D040C2F12002914008431946704742
:1002B000064C074D06E0E06840F0010394E80700B3
:1002C00098471034AC42F6D3FFF762FF7C24000855
:1002D0009C24000800BFFEE7704710B5402000F0E6
:1002E000B3F9802000F0B0F94FF4807000F0ACF961
:1002F0004FF4007000F0A8F910BD704710B500224F
:1003000001B909E0012901D10A0205E0022901D160
:100310000A0201E04FF440720E4B1B6823F4407355
:100320000C4C236023461B681343236023461B6841
:1003300023F0F803236023461B68022444EAC00428
:100340002343044C236023461B6843F4803323601B
:1003500010BD0000103C02401C48006800F4007012
:10036000B0B11A48006820F400701849086000BF56
:100370000846006840F4006008600846006820F401
:100380000060086000BF0846006840F40070086024
:100390000E48006800F48060B0B10C48006820F49A
:1003A00080600A49086000BF0846006840F4805039
:1003B00008600846006820F48050086000BF0846C6
:1003C000006840F48060086070470000003C024014
:1003D00010B500F079F810BD2348006800F0100057
:1003E00040B12248C06940F010002049C861102087
:1003F0001D4908601C48006800F0200040B11B48FF
:10040000C06940F008001949C861202016490860F9
:100410001548006800F0400040B11448C06940F041
:1004200004001249C86140200F4908600E48006866
:1004300000F0800040B10D48C06940F002000B4957
:10044000C8618020084908600748006800F0020081
:1004500040B10648C06940F020000449C86102204C
:1004600001490860704700000C3C02401401002064
:100470007047014691F83500022803D08020486576
:1004800001207047052081F835000868006820F0D9
:1004900001000A6810600020F3E7000070B5044610
:1004A00000F0E6F906462546681C10B104480078BD
:1004B000054400BF00F0DCF9801BA842FAD370BDF0
:1004C000080000207047000010B500244048006874
:1004D00000F0F200D8B13F480078012806D13D482D
:1004E000C4684FF0FF303B49C86008E039480078E5
:1004F000022802D13748046901E036484469FFF711
:100500006BFF204600F068F8002032490870304840
:10051000006800F0010000283ED001202C4908604E
:100520002C480078012825D12A484068401E2949D6
:1005300048600846406880B10846C4682046FFF716
:10054000C1FF2448C068401C2249C8600846C468EE
:10055000017A2046FFF7D2FE1EE04FF0FF3004463E
:100560001C49C86000200870FFF7F6FE2046FFF720
:10057000A9FF11E017480078022806D1FFF7ECFE2A
:1005800014490869FFF79EFF03E012494869FFF725
:1005900099FF00200F4908700E480078B0B90C4848
:1005A000001D006820F0FF000949091D0860084689
:1005B000006820F0807008600846006820F0007035
:1005C000086000BF00200349087600BF10BD00008E
:1005D0000C3C0240140100207047000010B5044696
:1005E000402C02D10FA001F029FE802C02D10FA0D7
:1005F00001F024FEB4F5807F07D10EA001F01EFEAD
:10060000002280210D4800F02DF9B4F5007F07D1BC
:100610000BA001F013FE01228021084800F022F90E
:1006200010BD00005045360D0A0000005046370D41
:100630000A0000005046380D0A000000000C02407D
:100640005046390D0A00000010B504460448006801
:10065000204020B1024804602046FFF7BFFF10BDD4
:10066000143C0140F8B502460B460025002400204A
:100670000021DCE0012606FA01F51E6806EA050401
:10068000AC4273D15E68012E08D05E68022E05D0A0
:100690005E68112E02D05E68122E13D190684F0052
:1006A0000326BE40B0434F00DE68BE40304390603A
:1006B000506801268E40B0431E79C6F300168E4066
:1006C00030435060D0684F000326BE40B0434F0017
:1006D0009E68BE403043D0605E68022E02D05E68E5
:1006E000122E13D1CF0802F1200656F827004E072C
:1006F000F70E0F26BE40B0434F07FF0E1E69BE40E7
:100700003043CF0802F1200646F8270010684F005A
:100710000326BE40B0431E7906F003064F00BE40DC
:10072000304310605E6806F08056B6F1805F7DD180
:1007300000BF00260096404E366846F480463E4F85
:100740003E603E46366806F48046009600BF00BF15
:100750003A4E8F0856F827008E07370F0F26BE40F7
:10076000B043374EB24202D1002624E05EE0354E5F
:10077000B24201D101261EE0334EB24201D102261F
:1007800019E0324EB24201D1032614E0304EB2429B
:1007900001D104260FE02F4EB24201D105260AE016
:1007A0002D4EB24201D1062605E02C4EB24201D1B7
:1007B000072600E008268F073F0FBE4030431F4E3C
:1007C0008F0846F82700264E3068A0435E6806F47E
:1007D0008036B6F5803F00D12043214E3060361D73
:1007E0003068A0435E6806F40036B6F5003F00D1DD
:1007F00020431B4E361D3060361D3068A0435E68B6
:1008000006F48016B6F5801F00D12043144E08363A
:100810003060361D3068A0435E6806F40016B6F5F9
:10082000001F00D120430E4E0C363060491C1029A9
:10083000FFF420AFF8BD0000443802400838014002
:10084000000002400004024000080240000C024088
:10085000001002400014024000180240001C024038
:10086000003C01400AB1816101E00B0483617047E3
:10087000014800687047000000000020034800683D
:1008800003490978084401490860704700000020C6
:100890000800002010B50D48006840F400700B49B6
:1008A00008600846006840F48060086008460068F8
:1008B00040F480700860032000F0E6F8002000F0AB
:1008C00007F800F04BF8002010BD0000003C02408B
:1008D00070B588B004460025002600222146192064
:1008E00000F094F8192000F081F800BF002001907A
:1008F0001648006840F00100144908600846006886
:1009000000F00100019000BF00BF02A903A800F0A1
:10091000A3F900F0D9F945000D48B5FBF0F0461EEB
:100920000C480D49086040F2E7310B48C160466051
:1009300000210161816000F075FC20B9064800F0DB
:100940008CFC08B070BD0120FBE700004438024079
:1009500040420F0000000140D400002008B500BF55
:10096000002000902048006840F480401E49086044
:100970000846006800F48040009000BF00BF00BF40
:1009800000200090081F006840F08050091F086098
:100990000846006800F08050009000BF00BF0520AE
:1009A00000F072F800221146012000F02FF801201B
:1009B00000F01CF800221146042000F027F8042063
:1009C00000F014F800221146052000F01FF8052061
:1009D00000F00CF800221146512000F017F85120C9
:1009E00000F004F808BD0000443802400146084603
:1009F000002809DB00F01F0301229A4043099B00F5
:100A000003F1E023C3F8002100BF70472DE9F05F38
:100A100080460D461646002701F020FC0746394661
:100A20002A46334601F00700C0F1070ABAF1040F65
:100A300002D94FF0040A01E0C0F1070AD14600F1E3
:100A4000040ABAF1070F02D24FF0000A01E0A0F148
:100A5000030AD4464FF0010A0AFA09FAAAF1010A78
:100A60000AEA020A0AFA0CFA4FF0010B0BFA0CFB25
:100A7000ABF1010B0BEA030B4AEA0B04214640469B
:100A800001F0F4FBBDE8F09F00BF00F00702064B49
:100A900019684FF6FF031940044B0B4343EA022148
:100AA000014B196000BF70470CED00E00000FA0533
:100AB0007047000010B50648006800F4803028B187
:100AC000FFF7F6FF4FF480300149086010BD0000C9
:100AD000143C014070B504460D460CB9012070BDB0
:100AE0005848006800F00F00A84209D255490D701F
:100AF0000846006800F00F00A84201D00120EEE790
:100B0000207800F0020002281DD1207800F00400B7
:100B1000042805D14C48006840F4E0504A49086078
:100B2000207800F00800082805D14748006840F404
:100B30006040454908604448006820F0F000A16822
:100B4000084341490860207800F00100A8B36068BC
:100B5000012807D13C4808380068C0F34040B8B9C4
:100B60000120BCE76068022802D06068032807D132
:100B7000354808380068C0F3406048B90120AEE746
:100B8000314808380068C0F3400008B90120A6E7E2
:100B90002D48006820F00300616808432A49086076
:100BA000FFF766FE064609E0FFF762FE801B41F292
:100BB0008831884202D9032091E707E02248006883
:100BC00000F00C006168B0EB810FEDD11D480068AA
:100BD00000F00F00A84209D91A490D7008460068B4
:100BE00000F00F00A84201D0012078E7207800F043
:100BF0000400042807D11448006820F4E050E1689C
:100C0000084311490860207800F00800082808D13E
:100C10000D48006820F46040216940EAC1000A499B
:100C2000086000F061F808490968C1F30311074A38
:100C3000515CC8400649086006480068FFF748FE56
:100C400000204CE7003C02400838024064240008C1
:100C50000C000020040000200F2202600D4A1268E0
:100C600002F0030242600B4A126802F0F002826056
:100C7000084A126802F4E052C260064A126802F49E
:100C80006042D2080261044A126802F00F020A6050
:100C90007047000008380240003C024001480068EC
:100CA000704700000C00002000B5FFF7F7FF044973
:100CB0000968C1F38221034A515CC84000BD0000AD
:100CC000083802407424000800B5FFF7E7FF044924
:100CD0000968C1F34231034A515CC84000BD0000BD
:100CE00008380240742400082DE9F047002400254C
:100CF0000026A1462548006800F00C0020B1042819
:100D000005D008283AD105E0DFF8849039E0DFF813
:100D1000849036E01D48001F006800F03F041B4827
:100D2000001F006800F4800078B11A481749091FB5
:100D30000968C1F38811A0FB017001462246002317
:100D40003846FFF73DFA05460EE011480F49091FE6
:100D50000968C1F38811A0FB0170014622460023F7
:100D60003846FFF72DFA05460848001F0068C0F313
:100D70000140401C4600B5FBF6F902E0DFF8109098
:100D800000BF00BF4846BDE8F087000008380240B9
:100D90000024F40000127A00F8B504460CB90120D2
:100DA000F8BD207800F00100002874D0F9480068F0
:100DB00000F00C0004280DD0F648006800F00C008C
:100DC000082813D1F348001F006800F48000B0F534
:100DD000800F0BD1EF4808380068C0F3404000286E
:100DE00059D06068002856D10120D9E700BF60685B
:100DF000B0F5803F08D1E7480838006840F48030FB
:100E0000E449083908601EE06068B0F5A02F0DD1F4
:100E1000E0480838006840F48020DE49083908605E
:100E20000846006840F4803008600CE0D948083873
:100E3000006820F48030D749083908600846006807
:100E400020F48020086000BF606890B1FFF710FDBB
:100E5000054606E0FFF70CFD401B642801D903207E
:100E60009EE7CC4808380068C0F340400028F1D025
:100E700011E0FFF7FDFC054606E0FFF7F9FC401B1B
:100E8000642801D903208BE7C24808380068C0F302
:100E900040400028F1D1207800F0020002285FD104
:100EA000BC48006800F00C0058B1BA48006800F077
:100EB0000C0008281CD1B748001F006800F480000F
:100EC000B0B9B44808380068C0F3400020B1E06809
:100ED000012801D0012063E7AE480838006820F0FF
:100EE000F800216940EAC100AA490839086037E0E2
:100EF000E06800B30120A8490860FFF7B9FC054687
:100F000006E0FFF7B5FC401B022801D9032047E7A4
:100F1000A04808380068C0F340000028F1D09D4880
:100F20000838006820F0F800216940EAC1009949BA
:100F30000839086014E0002097490860FFF798FC22
:100F4000054606E0FFF794FC401B022801D9032068
:100F500026E7904808380068C0F340000028F1D127
:100F6000207800F0080008282CD16069A8B1012081
:100F70008A490860FFF77CFC054606E0FFF778FC2D
:100F8000401B022801D903200AE782486C30006820
:100F9000C0F340000028F1D014E000207F49086031
:100FA000FFF766FC054606E0FFF762FC401B0228DF
:100FB00001D90320F4E677486C300068C0F34000A4
:100FC0000028F1D1207800F00400042870D1002717
:100FD00070483830006800F0805090B900BF0020A1
:100FE00000906C483830006840F0805069493831D2
:100FF00008600846006800F08050009000BF00BF05
:1010000001276748006800F48070B0B96448006840
:1010100040F4807062490860FFF72AFC054606E04C
:10102000FFF726FC401B022801D90320B8E65C48E4
:10103000006800F480700028F2D000BFA06801288A
:1010400008D154486830006840F0010051496831C7
:1010500008601DE0A06805280DD14E486830006882
:1010600040F004004B49683108600846006840F0D1
:10107000010008600CE047486830006820F001007B
:101080004449683108600846006820F004000860A0
:1010900000BFA068A8B1FFF7EBFB054609E0FFF72A
:1010A000E7FB401B41F28831884202D9032077E6F2
:1010B00026E0384868300068C0F340000028EED0D1
:1010C00013E0FFF7D5FB054608E0FFF7D1FB401B17
:1010D00041F28831884201D9032061E62D48683009
:1010E0000068C0F340000028EFD1012F07D1294844
:1010F0003830006820F0805026493831086000BF41
:10110000A069002845D02348006800F00C0008289A
:101110005DD0A069022845D100201F490866FFF76D
:10112000A7FB054606E0FFF7A3FB401B022801D9F9
:10113000032035E6174808380068C0F340600028EF
:10114000F1D1D4E907010843616A40EA8111012223
:10115000A06AC2EB500041EA00412C20005D41EA48
:1011600000600C49091F086001200B490866FFF761
:101170007FFB054606E0FFF77BFB401B022801D9F9
:1011800003200DE6034808380068C0F340600028DB
:10119000F1D03FE00838024000004742800E47424D
:1011A0000070004000201C490866FFF761FB0546FF
:1011B00006E0FFF75DFB401B022801D90320EFE5A5
:1011C00016480068C0F340600028F2D122E0A06910
:1011D000012800D1E4E51148001D066806F48001ED
:1011E000E069814214D106F03F01206A81420FD1AB
:1011F00047F6C0703040616A884209D106F4403138
:10120000A06A814204D106F07061E06A814201D097
:101210000120C5E50020C3E5000047420038024038
:101220007047704710B504460CB9012010BD94F802
:101230003D0028B9002084F83C00204600F00CF85E
:10124000022084F83D00211D206800F095FC01205B
:1012500084F83D000020E9E7704701460868C0684F
:1012600040F001000B68D8600868806800F0070251
:10127000062A05D00868006840F001000B68186075
:1012800000207047704710B5044620680069C0F31D
:101290004000D8B12068C068C0F34000B0B16FF022
:1012A000020021680861012020772068806900F031
:1012B000030018B12046FFF7E5FF05E0204600F0E7
:1012C000ADF8204600F0ABF80020207720680069D8
:1012D000C0F38000D8B12068C068C0F38000B0B10E
:1012E0006FF004002168086102202077206880697F
:1012F00000F4407018B12046FFF7C4FF05E0204617
:1013000000F08CF8204600F08AF800202077206852
:101310000069C0F3C000D8B12068C068C0F3C00045
:10132000B0B16FF0080021680861042020772068C0
:10133000C06900F0030018B12046FFF7A3FF05E0E5
:10134000204600F06BF8204600F069F80020207776
:1013500020680069C0F30010D8B12068C068C0F3ED
:101360000010B0B16FF010002168086108202077EC
:101370002068C06900F4407018B12046FFF782FF72
:1013800005E0204600F04AF8204600F048F800202A
:1013900020772068006900F0010058B12068C0681B
:1013A00000F0010030B16FF00100216808612046B3
:1013B00000F036F820680069C0F3C01058B120680A
:1013C000C068C0F3C01030B16FF0800021680861C0
:1013D0002046FFF725FF20680069C0F3801058B150
:1013E0002068C068C0F3801030B16FF04000216801
:1013F0000861204600F01EF820680069C0F3401024
:1014000058B12068C068C0F3401030B16FF02000C0
:10141000216808612046FFF704FF10BD7047704740
:1014200000680349884201D1FFF728BA70470000DD
:1014300000000140704770472DE9F04704462068DE
:1014400005682068C668206847694FF00008C146F3
:1014500005F00F08B8F1000F0AD105F0200038B1EF
:1014600006F0200020B1204600F01CFCBDE8F0870B
:10147000B8F1000F72D007F0010018B906F49070AF
:1014800000286BD005F0010030B106F4807018B16F
:10149000E06B40F00100E06305F0040030B107F0BC
:1014A000010018B1E06B40F00200E06305F00200BB
:1014B00030B107F0010018B1E06B40F00400E063C8
:1014C00005F0080048B106F0200010B907F001004F
:1014D00018B1E06B40F00800E063E06B70B305F01A
:1014E000200028B106F0200010B1204600F0DAFB01
:1014F00020684069C0F38019E06B00F0080010B963
:10150000B9F1000F23D0204600F0ACFB2068406901
:1015100000F04000402816D12068406920F04000CB
:1015200021684861606B50B11748616B0865606B5A
:10153000FEF79FFF10B1606B016D88470CE02046FD
:10154000FFF779FF08E02046FFF775FF04E020462B
:10155000FFF771FF0020E06388E7FFE705F08000F8
:1015600030B106F0800018B1204600F0E3FD7DE7C1
:1015700005F0400030B106F0400018B1204600F000
:1015800081FB73E700BF71E7511C000810B50446EA
:101590000CB9012010BDA06900B100E000BF94F8B3
:1015A000390028B9002084F83800204600F028F8D7
:1015B000242084F839002068C06820F40050216895
:1015C000C860204600F0C2FB2068006920F490400B
:1015D000216808612068406920F02A00216848617C
:1015E0002068C06840F400502168C8600020E063B3
:1015F000202084F8390084F83A000020CAE700006F
:1016000010B586B00446142101A8FEF711FE5F490B
:101610002068884239D100BF002000905C480068F3
:1016200040F010005A4908600846006800F01000B9
:10163000009000BF00BF00BF002000905448143845
:10164000006840F0010052491439086008460068FB
:1016500000F00100009000BF00BF4FF4C060019097
:1016600002200290002003900320049007200590A0
:1016700001A94848FEF7F6FF002211462520FFF792
:10168000C5F92520FFF7B2F97DE04349206888427B
:101690003AD100BF002000903D48001F006840F490
:1016A00000303B49091F08600846006800F400301C
:1016B000009000BF00BF00BF0020009034481438E5
:1016C000006840F00100324914390860084600689B
:1016D00000F00100009000BF00BF0C20019002202C
:1016E000029000200390032004900720059001A998
:1016F0002848FEF7B7FF002211462620FFF786F99B
:101700002620FFF773F93EE02449206888423AD149
:1017100000BF002000901E48001F006840F4802099
:101720001B49091F08600846006800F480200090EB
:1017300000BF00BF00BF00200090154814380068AB
:1017400040F002001249143908600846006800F0B1
:101750000200009000BF00BF4FF4406001900220E3
:10176000029000200390032004900720059001A917
:101770000B48FEF777FF002211462720FFF746F9B6
:101780002720FFF733F906B010BD0000001001401C
:10179000443802400000024000440040004800403D
:1017A0000004024070472DE9F84304460D461646F2
:1017B0001F464FF0000994F8390020285DD105B18B
:1017C00016B90120BDE8F88300BF94F8380001285D
:1017D00001D10220F6E7012084F8380000BF002084
:1017E000E063212084F83900FFF742F88146A6849F
:1017F000E68400BF002084F8380000BF2BE0E08CB6
:10180000401EE084A068B0F5805F16D14B460022F0
:1018100080212046009700F0C1FC08B10320D1E7E9
:10182000A846B8F80000C0F30800216848602069A5
:1018300008B9AD1C0FE06D1C0DE04B460022802165
:101840002046009700F0AAFC08B10320BAE715F87B
:10185000010B21684860E08C0028D0D14B46002263
:1018600040212046009700F099FC08B10320A9E729
:10187000202084F839000020A4E70220A2E7704766
:1018800000BFFEE72DE9F04786B0142101A8FEF75E
:10189000CFFC00245148016841F01001016001684B
:1018A00001F010010091016841F00401016001683C
:1018B00001F004010091016841F02001016001681C
:1018C00001F020010091016841F080010160016890
:1018D00001F080010091016841F00101016001689F
:1018E00001F001010091016841F00201016001680D
:1018F00001F002010091016841F0400101600168BE
:1019000001F040010091016841F0080101600068A8
:1019100000F008000090DFF8C8A00122182150460E
:10192000FEF7A0FF2F4F002280213846FEF79AFFD6
:10193000DFF8B480002280214046FEF793FF0122A9
:1019400051023846FEF78EFFDFF8A0900022C0213A
:101950004846FEF787FF1820019001250295039461
:10196000049401A95046FEF77DFE40200190204ED0
:101970000296039401A95046FEF774FE4FF460707E
:1019800001900296039401A91A48FEF76BFE4FF4EA
:101990002070019002950394049401A93846FEF743
:1019A00061FE8020019002950394049401A94046B1
:1019B000FEF758FEC020019002950394049401A9FB
:1019C0004846FEF74FFE002211461720FFF71EF88B
:1019D0001720FFF70BF806B0BDE8F087303802405B
:1019E0000010024000180240000C024000040240B7
:1019F000000021100014024010B50C480A49016093
:101A00004FF4E131416000218160C16001610C222D
:101A100042618161C161FFF7B9FD002803D0BDE8D3
:101A20001040FEF76ABC10BD0010014014000020F9
:101A300010B50C480A4901604FF4E13141600021C2
:101A40008160C16001610C2242618161C161FFF767
:101A50009DFD002803D0BDE81040FEF74EBC10BD30
:101A6000004400405400002010B50C480A490160B1
:101A70004FF4E131416000218160C16001610C22BD
:101A800042618161C161FFF781FD002803D0BDE89B
:101A90001040FEF732BC10BD00480040940000200A
:101AA00000BFFEE7704710B5FFF704F810BD7047A0
:101AB000704770477047000030B593B0302107A8D9
:101AC000FEF7B6FB142102A8FEF7B2FB00251D4865
:101AD000016841F080510160006800F08050019081
:101AE0001948016841F480410160006800F48040B9
:101AF0000190012007900004089002240D948001B9
:101B00000E9004200F90A82110911194129007A814
:101B1000FFF742F908B1FEF7F0FB0F2002900394A3
:101B200004954FF4A05005904FF480500690052185
:101B300002A8FEF7CFFF002801D0FEF7DEFB13B0AE
:101B400030BD000040380240007000400548006889
:101B500040F47000034908604FF00060014980398B
:101B60000860704788ED00E010B50248FFF78BFB76
:101B700010BD0000D400002010B50268294B984227
:101B80000ED0B0F1804F0BD0274B984208D0274B96
:101B9000984205D0264B984202D0264B984203D15A
:101BA00022F070024B681A431E4B984220D0B0F1CD
:101BB000804F1DD01C4B98421AD01C4B984217D016
:101BC0001B4B984214D01B4B984211D01A4B984291
:101BD0000ED01A4B98420BD0194B984208D0194B93
:101BE000984205D0184B984202D0184B984203D126
:101BF00022F44072CB681A4322F080034C6943EA16
:101C0000040202608B68C3620B688362054B9842D2
:101C100002D0084B984201D10B6903630123436151
:101C200010BD00000000014000040040000800401A
:101C3000000C00400004014000400140004401400D
:101C40000048014000180040001C004000200040F7
:101C500070B50546AC6B0020E085E0842046FFF7B8
:101C6000EAFB70BD0168C96821F490710268D16017
:101C70000168496921F0010102685161202180F861
:101C80003A10704710B504462068C06820F0400044
:101C90002168C860202084F839002046FFF7EFFD56
:101CA000002010BD70B5044694F83A0022284AD1AD
:101CB000A068B0F5805F13D1A56A206940B920689B
:101CC0004068C0F308002880A06A801CA06219E068
:101CD00020684068C0B22880A06A401CA06211E061
:101CE000206938B920684068C1B2A26A501CA0625D
:101CF000117007E02068406800F07F01A26A501C64
:101D0000A0621170E08D401E80B2E085C8B92068E5
:101D1000C06820F020002168C8602068C06820F4F6
:101D200080702168C8602068406920F00100216847
:101D30004861202084F83A002046FFF733FD002058
:101D400070BD0020FCE70220FAE700002DE9F84F03
:101D500004462068006920F44050E1680843216887
:101D600008612169A068084361690843E169084383
:101D700000902068C06849F20C61884300990843CC
:101D80002168C8602068406920F44070A169084358
:101D900021684861E069B0F5004F75D1E3492068DA
:101DA000884203D0E249206888426FD1FEF78CFF59
:101DB000814602206168A0FB01510B461920A9FB56
:101DC00000712A463846FEF7FBF96421B0FBF1F0BA
:101DD0004FEA001A02206168A0FB01510B4619204E
:101DE000A9FB00712A463846FEF7EAF907460220A9
:101DF0006168A0FB01510B461920A9FB00B12A46DE
:101E00005846FEF7DDF96421B0FBF1F000EBC001AC
:101E100001EB0010A7EB8000322101EBC000642130
:101E2000B0FBF1F000F0F8000AEB400A0220616814
:101E3000A0FB01510B461920A9FB00712A46384628
:101E4000FEF7BEF9074602206168A0FB01510B4670
:101E50001920A9FB00B12A465846FEF7B1F96421C2
:101E6000B0FBF1F000EBC00101EB0010A7EB80002C
:101E7000322101EBC0006421B0FBF1F000F007005B
:101E80005044216888604FE16EE0FFE7FEF70CFFE9
:101E9000814602206168A0FB01510B461920A9FB75
:101EA00000712A463846FEF78BF96421B0FBF1F049
:101EB0004FEA001A02206168A0FB01510B4619206D
:101EC000A9FB00712A463846FEF77AF90746022038
:101ED0006168A0FB01510B461920A9FB00B12A46FD
:101EE0005846FEF76DF96421B0FBF1F000EBC0013C
:101EF00001EB0010A7EB8000322101EBC000642150
:101F0000B0FBF1F000F0F8000AEB400A0220616833
:101F1000A0FB01510B461920A9FB00712A46384647
:101F2000FEF74EF9074602206168A0FB0150034608
:101F30001920A9FB00B12A465846FEF741F9642151
:101F4000B0FBF1F000EBC00101EB0010A7EB80004B
:101F5000322101EBC0006421B0FBF1F000F007007A
:101F6000504421688860DFE070492068884203D0CF
:101F70006F49206888426BD1FEF7A6FE8146042097
:101F80006168A0FB01510B461920A9FB00712A468C
:101F90003846FEF715F9824604206168A0FB01511E
:101FA0000B461920A9FB00712A463846FEF708F9AE
:101FB0006421B0FBF1F000EBC00101EB0010AAEBD3
:101FC0008000322101EB00106421B0FBF1F000F041
:101FD000F00A04206168A0FB015003461920A9FB08
:101FE00000712A463846FEF7EBF86421B0FBF1F0A9
:101FF0000AEB001A04206168A0FB01510B4619206E
:10200000A9FB00712A463846FEF7DAF80746042095
:102010006168A0FB015003461920A9FB00B12A46C4
:102020005846FEF7CDF86421B0FBF1F000EBC0019B
:1020300001EB0010A7EB8000322101EB00106421BE
:10204000B0FBF1F000F00F005044216888606BE0B5
:10205000FEF72AFE814604206168A0FB015003467A
:102060001920A9FB00712A463846FEF7A9F88246D6
:1020700004206168A0FB015003461920A9FB0071F0
:102080002A463846FEF79CF86421B0FBF1F000EBDD
:10209000C00101EB0010AAEB8000322101EB00101F
:1020A0006421B0FBF1F000F0F00A04206168A0FBAD
:1020B000015003461920A9FB00712A463846FEF755
:1020C0007FF86421B0FBF1F00AEB001A042061688C
:1020D000A0FB017003461920A9FB005001463A46B7
:1020E0002846FEF76DF8074604206168A0FB015002
:1020F00003461920A9FB00B12A465846FEF760F8AE
:102100006421B0FBF1F000EBC00101EB0010A7EB84
:102110008000322101EB00106421B0FBF1F000F0EF
:102120000F00504421688860BDE8F88F001001401E
:1021300000140140014691F8390021282CD188680B
:10214000B0F5805F0FD10A6A1088C0F308000B68F1
:102150005860086918B9086A801C086209E0086AB2
:10216000401C086205E00B6A581C086218780B686E
:102170005860C88C401E80B2C88458B90868C068CE
:1021800020F080000B68D8600868C06840F040000C
:102190000B68D860002070470220FCE72DE9F04171
:1021A00004460D4617469846069E21E0701CF8B17D
:1021B0002EB1FEF75DFBA0EB0800B04218D92068F5
:1021C000C06820F4D0702168C8602068406920F0A1
:1021D000010021684861202084F8390084F83A0021
:1021E00000BF002084F8380000BF0320BDE8F08164
:1021F000206800682840A84201D1012000E00020AA
:10220000B842D3D00020F1E710B50248FFF714F927
:1022100010BD00001400002010B50248FFF70CF9B3
:1022200010BD00005400002010B50248FFF704F96B
:1022300010BD00009400002000BFFEE70FB4054B66
:1022400010B503A9044A029800F034F810BC5DF8F8
:1022500014FB000009240008100000200248006858
:10226000C0F30220704700000CED00E010B500281C
:1022700004DB0A07130E054A135406E00A07140E7E
:10228000034A00F00F031B1FD45410BD00E400E00C
:1022900018ED00E002E008C8121F08C1002AFAD1B8
:1022A00070477047002001E001C1121F002AFBD1D6
:1022B000704700002DE9FF4F89B09B46044600257A
:1022C00006E025280BD05A460B999047641C6D1CDC
:1022D00020780028F5D10DB02846BDE8F08F002702
:1022E000B8460122474900E0074314F8013F203B6C
:1022F00002FA03F00842F7D120782E2819D114F8F9
:10230000010F47F004072A280ED06FF02F02207823
:10231000A0F1300109290CD808EB880102EB41013A
:1023200000EB0108641CF2E70A98641C50F8048B67
:102330000A9020780028CED0642808D0692806D0DA
:1023400075281ED05A460B9990476D1C58E00A9983
:102350004FF00A0901C90A91002802DA40422D21F2
:1023600002E0390504D52B218DF82010012103E06E
:10237000F90704D02021F7E78A4608AE0DE00021D6
:10238000FAE70A994FF00A0901C90A91F7E74946A5
:10239000FDF759FF303106F8011D0028F7D1ADEBEC
:1023A000060000F12009780701D44FF00108C84564
:1023B00002DDA8EB090000E000208046002706E0CF
:1023C00008A85A46C05D0B9990476D1C7F1C574565
:1023D000F6DB04E030205A460B9990476D1CB8F1AB
:1023E0000001A8F10108F5DC05E016F8010B5A46DA
:1023F0000B9990476D1CB9F10001A9F10109F4DCBA
:10240000641C65E70928010013B54FF6FF7301222C
:1024100069460248FFF7C7F900981CBD1400002068
:102420000024FEF737FAFFF747FBFFF72BFAFFF719
:10243000E3FAFFF7FDFAFFF717FB4FF47A75214631
:10244000641C03A0FFF7FAFE2846FEF727F8F6E71C
:1024500074657374206D79626F6172642025640DF8
:102460000A00000000000000000000000102030458
:102470000607080900000000010203049C2400086C
:10248000000000201400000094220008B02400087E
:102490001400002024050000A42200080000000011
:1024A00010000000010000000024F4000000000003
:040000050800018965
:00000001FF
